:0200000080116D
:10000B00758A60758CEA80777521007522007523DF
:10001B0000752400752500752600752700752800CE
:10002B00758901758A60758CEA75A882D28C31103E
:10003B000521AB21BB0AF77521000522AB22BB0AB8
:10004B00ED7522000523AB23BB0AE37523000524C2
:10005B00AB24BB0AD97524000525AB25BB0ACF758C
:10006B0025000526AB26BB0AC57526000527AB2741
:10007B00BB0ABB7527000528AB28BB0AB180AF2094
:10008B00001520011F20022920033320043D2005E9
:10009B004720065120075B75A0EFE5213109C2000F
:1000AB00D201805975A0FEE5223109C201D202802E
:1000BB004C75A0FDE5233109C202D203803F75A028
:1000CB00FBE5243109C203D204803275A0F7E52584
:1000DB003109C204D205802575A0DFE5263109C29E
:1000EB0005D206801875A0BFE5273109C206D207D5
:1000FB00800B75A07FE5283109C207D20032900131
:10010B001D93F58022780179327A32DAFED9FAD84A
:0C011B00F622C0F9A4B0999282F88090FE
:00000001FF
